:020000040800F2
:100000000050002051070008D1060008D70600085C
:10001000DD060008E3060008E9060008000000000D
:10002000000000000000000000000000EF060008D3
:10003000FB0600080000000007070008130700087F
:100040009907000899070008990700089907000810
:100050009907000899070008990700089907000800
:1000600099070008990700089907000899070008F0
:1000700099070008990700089907000899070008E0
:1000800099070008990700089907000899070008D0
:1000900099070008990700089907000899070008C0
:1000A00099070008990700089907000899070008B0
:1000B0002107000899070008990700089907000818
:1000C0009907000899070008990700089907000890
:1000D0009907000899070008990700089907000880
:1000E000350700089907000899070008000000007C
:1000F0000000000000000000000000000000000000
:0C01000000000000000000005FF808F1A3
:10010C0010B5054C237833B9044B13B10448AFF345
:10011C0000800123237010BD0C00002000000000A3
:10012C002820000808B5034B1BB103490348AFF363
:10013C00008008BD000000001000002028200008EE
:10014C0080B400AF074B1B68013B064A1360054B9C
:10015C001B68002B02DC044B01221A6000BFBD4659
:10016C0080BC7047B8000020BC00002080B483B075
:10017C0000AF7860054A7B681360054B00221A605B
:10018C0000BF0C37BD4680BC704700BFB8000020D4
:10019C00BC00002080B400AF074B1B68013B064A33
:1001AC001360054B1B68002B02DC044B01221A6008
:1001BC0000BFBD4680BC7047C0000020C4000020BA
:1001CC0080B483B000AF7860054A7B681360054B40
:1001DC0000221A6000BF0C37BD4680BC704700BFC0
:1001EC00C0000020C400002080B582B000AF00F039
:1001FC00CFFA00F085F800F03BF900F00FF900F0B1
:10020C00C1F83A4801F052FA00237B6000233B60AE
:10021C0000222021364800F0AFFD7B68022B1DD058
:10022C007B68022B2CDC7B68002B03D07B68012BBA
:10023C0005D025E001237B600920FFF797FF012201
:10024C0020212B4800F098FD2A4B1B68012B14D160
:10025C000120FFF78BFF02237B600EE000222021A0
:10026C00234800F089FD234B1B68012B07D1092083
:10027C00FFF77CFF01237B6001E000BF00E000BFC3
:10028C003B68022B1ED03B68022BC6DC3B68002B64
:10029C0003D03B68012B05D027E001233B600920EC
:1002AC00FFF78EFF01224FF40071134800F064FD3C
:1002BC00124B1B68012B15D10120FFF781FF022384
:1002CC003B600FE000224FF400710B4800F054FD2E
:1002DC000A4B1B68012B07D10920FFF771FF012383
:1002EC003B6001E000BF98E700BF96E728000020C4
:1002FC0000080140BC00002000100140C400002098
:10030C0080B590B000AF07F11803282200211846E1
:10031C0001F07CFE3B1D00221A605A609A60DA6084
:10032C001A610223BB610123BB621023FB6202230F
:10033C007B630023BB634FF46013FB6307F118036B
:10034C00184600F053FD0346002B01D000F020F9B5
:10035C000F237B600223BB600023FB604FF48063A0
:10036C003B6100237B613B1D0221184600F0C0FF5E
:10037C000346002B01D000F00BF900BF4037BD46FF
:10038C0080BD000080B586B000AF07F108030022E5
:10039C001A605A609A60DA603B4600221A605A6012
:1003AC001D4B4FF080421A601B4B41F6FF025A6006
:1003BC00194B00229A60184B0922DA60164B002266
:1003CC001A61154B00229A61134801F01FF903467C
:1003DC00002B01D000F0DCF84FF48053BB6007F128
:1003EC00080319460C4801F0BBFA0346002B01D058
:1003FC0000F0CEF800233B6000237B603B4619469F
:10040C00054801F091FC0346002B01D000F0C0F828
:10041C0000BF1837BD4680BD2800002080B500AF56
:10042C00114B124A1A60104B4FF4E1325A600E4BCA
:10043C0000229A600C4B0022DA600B4B00221A61EE
:10044C00094B0C225A61084B00229A61064B002280
:10045C00DA61054801F0D8FC0346002B01D000F00E
:10046C0097F800BF80BD00BF700000200044004022
:10047C0080B588B000AF07F1100300221A605A60F3
:10048C009A60DA60384B9B69374A43F010039361EA
:10049C00354B9B6903F01003FB60FB68324B9B6987
:1004AC00314A43F0200393612F4B9B6903F02003E7
:1004BC00BB60BB682C4B9B692B4A43F004039361D4
:1004CC00294B9B6903F004037B607B68264B9B697B
:1004DC00254A43F008039361234B9B6903F00803FF
:1004EC003B603B6800222021204800F045FC0022A4
:1004FC004FF400711E4800F03FFC4FF400533B6179
:10050C001C4B7B610023BB6107F110031946184893
:10051C0000F0AEFA20233B6101237B610023BB6119
:10052C000223FB6107F110031946104800F0A0FAF2
:10053C004FF400733B6101237B610023BB610223F9
:10054C00FB6107F110031946094800F091FA0022EB
:10055C000021282000F055FA282000F06EFA00BF88
:10056C002037BD4680BD00BF00100240000801408E
:10057C00001001400000111080B582B000AF78600F
:10058C00FFF7DEFDFFF706FE00BF0837BD4680BD56
:10059C0080B400AF72B600BFFEE7000080B485B037
:1005AC0000AF154B9B69144A43F001039361124B46
:1005BC009B6903F00103BB60BB680F4BDB690E4A00
:1005CC0043F08053D3610C4BDB6903F080537B60A9
:1005DC007B680A4B5B68FB60FB6823F0E063FB60A5
:1005EC00FB6843F00073FB60044AFB68536000BF78
:1005FC001437BD4680BC704700100240000001401B
:10060C0080B584B000AF78607B681B68B3F1804F15
:10061C0013D10C4BDB690B4A43F00103D361094B3B
:10062C00DB6903F00103FB60FB68002200211C2046
:10063C0000F0E7F91C2000F000FA00BF1037BD46AF
:10064C0080BD00BF0010024080B588B000AF78605C
:10065C0007F1100300221A605A609A60DA607B6816
:10066C001B68154A934223D1144BDB69134A43F49C
:10067C000033D361114BDB6903F40033FB60FB687F
:10068C000E4B9B690D4A43F0040393610B4B9B6922
:10069C0003F00403BB60BB680C233B6102237B614A
:1006AC000223FB6107F110031946054800F0E0F93D
:1006BC0000BF2037BD4680BD004400400010024002
:1006CC000008014080B400AFFEE780B400AFFEE745
:1006DC0080B400AFFEE780B400AFFEE780B400AF9B
:1006EC00FEE780B400AF00BFBD4680BC704780B44D
:1006FC0000AF00BFBD4680BC704780B400AF00BFE8
:10070C00BD4680BC704780B500AF00F087F800BFD5
:10071C0080BD000080B500AF024801F019F800BFA1
:10072C0080BD00BF2800002080B500AF4FF4005002
:10073C0000F03AFB00BF80BD80B400AF00BFBD46E7
:10074C0080BC7047FFF7F8FF0B480C490C4A00239C
:10075C0002E0D458C4500433C4188C42F9D3094A6B
:10076C00094C002301E013600432A242FBD301F0D8
:10077C0029FCFFF739FD7047000000200C00002019
:10078C00742000080C000020CC000020FEE70000C4
:10079C0080B500AF084B1B68074A43F01003136089
:1007AC00032000F023F9002000F008F8FFF7F6FE14
:1007BC000023184680BD00BF0020024080B582B0E7
:1007CC0000AF7860124B1A68124B1B7819464FF425
:1007DC007A73B3FBF1F3B2FBF3F3184600F03BF979
:1007EC000346002B01D001230EE07B680F2B0AD8A7
:1007FC00002279684FF0FF3000F003F9064A7B685D
:10080C001360002300E0012318460837BD4680BD65
:10081C0000000020080000200400002080B400AF7D
:10082C00054B1B781A46054B1B681344034A13608F
:10083C0000BFBD4680BC704708000020C8000020E7
:10084C0080B400AF024B1B681846BD4680BC704795
:10085C00C800002080B485B000AF78607B6803F0DE
:10086C000703FB600C4BDB68BB60BA684FF6FF03F9
:10087C001340BB60FB681A02BB68134343F0BF63B1
:10088C0043F40033BB60044ABB68D36000BF143729
:10089C00BD4680BC704700BF00ED00E080B400AFE7
:1008AC00044BDB681B0A03F007031846BD4680BCEB
:1008BC00704700BF00ED00E080B483B000AF03468A
:1008CC00FB7197F90730002B0BDBFB7903F01F0250
:1008DC00064997F907305B09012000FA02F241F84A
:1008EC00232000BF0C37BD4680BC704700E100E000
:1008FC0080B483B000AF03463960FB7197F90730C1
:10090C00002B0ADB3B68DAB20C4997F9073012016D
:10091C00D2B20B4483F800230AE03B68DAB20849F0
:10092C00FB7903F00F03043B1201D2B20B441A768D
:10093C0000BF0C37BD4680BC704700BF00E100E033
:10094C0000ED00E080B489B000AFF860B9607A6067
:10095C00FB6803F00703FB61FB69C3F10703042B7E
:10096C0028BF0423BB61FB690433062B02D9FB6946
:10097C00033B00E000237B614FF0FF32BB6902FABE
:10098C0003F3DA43BB681A407B699A404FF0FF319E
:10099C007B6901FA03F3D9437B680B401343184678
:1009AC002437BD4680BC704780B582B000AF7860FC
:1009BC007B68013BB3F1807F01D301230FE00A4A2E
:1009CC007B68013B53600F214FF0FF30FFF790FF26
:1009DC00054B00229A60044B07221A60002318462C
:1009EC000837BD4680BD00BF10E000E080B582B086
:1009FC0000AF78607868FFF72DFF00BF0837BD4661
:100A0C0080BD80B586B000AF0346B9607A60FB73D9
:100A1C0000237B61FFF742FF78617A68B9687869D7
:100A2C00FFF790FF024697F90F3011461846FFF773
:100A3C005FFF00BF1837BD4680BD80B582B000AFE8
:100A4C000346FB7197F907301846FFF735FF00BFD7
:100A5C000837BD4680BD80B582B000AF786078683D
:100A6C00FFF7A2FF034618460837BD4680BD0000BD
:100A7C0080B48BB000AF7860396000237B620023B8
:100A8C003B6269E101227B6A02FA03F3FB613B687A
:100A9C001B68FA691340BB61BA69FB699A4240F062
:100AAC0058813B685B689A4A93425ED0984A93425D
:100ABC0075D8984A934258D0964A93426FD8964A22
:100ACC00934252D0944A934269D8944A93424CD060
:100ADC00924A934263D8924A934246D0904A9342A8
:100AEC005DD8122B2AD8122B59D801A252F823F018
:100AFC00770B0008510B0008630B0008A50B0008CE
:100B0C00AB0B0008AB0B0008AB0B0008AB0B0008E1
:100B1C00AB0B0008AB0B0008AB0B0008AB0B0008D1
:100B2C00AB0B0008AB0B0008AB0B0008AB0B0008C1
:100B3C00AB0B0008590B00086D0B0008794A934267
:100B4C0013D02CE03B68DB683B6229E03B68DB6838
:100B5C0004333B6224E03B68DB6808333B621FE0F4
:100B6C003B68DB680C333B621AE03B689B68002BEC
:100B7C0002D104233B6213E03B689B68012B05D137
:100B8C0008233B627B68FA691A6109E008233B621F
:100B9C007B68FA695A6103E000233B6200E000BF06
:100BAC00BB69FF2B01D87B6801E07B6804337B6158
:100BBC00BB69FF2B02D87B6A9B0002E07B6A083B77
:100BCC009B003B617B691A680F213B6901FA03F3B7
:100BDC00DB431A40396A3B6901FA03F31A437B6918
:100BEC001A603B685B6803F08053002B00F0B18007
:100BFC004D4B9B694C4A43F0010393614A4B9B69F3
:100C0C0003F00103BB60BB68484A7B6A9B08023354
:100C1C0052F82330FB607B6A03F003039B000F2226
:100C2C0002FA03F3DB43FA681340FB607B68404A2B
:100C3C00934213D07B683F4A93420DD07B683E4A67
:100C4C00934207D07B683D4A934201D1032306E0CF
:100C5C00042304E0022302E0012300E000237A6A6B
:100C6C0002F0030292009340FA681343FB602F4991
:100C7C007B6A9B080233FA6841F823203B685B6867
:100C8C0003F48013002B06D02D4B9A682C49BB69BA
:100C9C0013438B6006E02A4B9A68BB69DB432849F7
:100CAC0013408B603B685B6803F40013002B06D089
:100CBC00234BDA682249BB691343CB6006E0204B17
:100CCC00DA68BB69DB431E491340CB603B685B6849
:100CDC0003F40033002B06D0194B5A681849BB6932
:100CEC0013434B6006E0164B5A68BB69DB4314494F
:100CFC0013404B603B685B6803F48033002B21D0BE
:100D0C000F4B1A680E49BB6913430B6021E000BFFF
:100D1C0000003210000031100000221000002110E1
:100D2C0000001210000011100010024000000140E1
:100D3C0000080140000C014000100140001401406B
:100D4C00000401400B4B1A68BB69DB430949134093
:100D5C000B607B6A01337B623B681A687B6A22FA00
:100D6C0003F3002B7FF48EAE00BF00BF2C37BD46C3
:100D7C0080BC70470004014080B483B000AF786041
:100D8C000B467B8013467B707B78002B03D07A88D4
:100D9C007B681A6103E07B881A047B681A6100BFC8
:100DAC000C37BD4680BC704780B582B000AF03469F
:100DBC00FB80084B5A69FB881340002B06D0054A70
:100DCC00FB885361FB88184600F006F800BF083713
:100DDC00BD4680BD0004014080B483B000AF034623
:100DEC00FB8000BF0C37BD4680BC704780B586B019
:100DFC0000AF78607B68002B01D1012372E27B6825
:100E0C001B6803F00103002B00F08780924B5B689A
:100E1C0003F00C03042B0CD08F4B5B6803F00C031A
:100E2C00082B12D18C4B5B6803F48033B3F5803FF5
:100E3C000BD1894B1B6803F40033002B6CD07B68FF
:100E4C005B68002B68D101234CE27B685B68B3F5CF
:100E5C00803F06D1804B1B687F4A43F4803313607C
:100E6C002EE07B685B68002B0CD17B4B1B687A4AAD
:100E7C0023F480331360784B1B68774A23F4802368
:100E8C0013601DE07B685B68B3F5A02F0CD1724B2F
:100E9C001B68714A43F4802313606F4B1B686E4AC6
:100EAC0043F4803313600BE06B4B1B686A4A23F4EA
:100EBC0080331360684B1B68674A23F480231360EC
:100ECC007B685B68002B13D0FFF7BAFC386108E035
:100EDC00FFF7B6FC02463B69D31A642B01D90323F6
:100EEC0000E25D4B1B6803F40033002BF0D014E0E0
:100EFC00FFF7A6FC386108E0FFF7A2FC02463B694D
:100F0C00D31A642B01D90323ECE1534B1B6803F474
:100F1C000033002BF0D100E000BF7B681B6803F0AE
:100F2C000203002B63D04C4B5B6803F00C03002BCB
:100F3C000BD0494B5B6803F00C03082B1CD1464BC0
:100F4C005B6803F48033002B16D1434B1B6803F012
:100F5C000203002B05D07B681B69012B01D00123F8
:100F6C00C0E13D4B1B6823F0F8027B685B69DB003A
:100F7C00394913430B603AE07B681B69002B20D086
:100F8C00364B01221A60FFF75BFC386108E0FFF773
:100F9C0057FC02463B69D31A022B01D90323A1E16A
:100FAC002D4B1B6803F00203002BF0D02A4B1B685F
:100FBC0023F0F8027B685B69DB00274913430B6065
:100FCC0015E0264B00221A60FFF73AFC386108E066
:100FDC00FFF736FC02463B69D31A022B01D90323D7
:100FEC0080E11D4B1B6803F00203002BF0D17B68E2
:100FFC001B6803F00803002B3AD07B689B69002B1D
:10100C0019D0174B01221A60FFF71AFC386108E05F
:10101C00FFF716FC02463B69D31A022B01D90323B6
:10102C0060E10D4B5B6A03F00203002BF0D0012052
:10103C0000F0CEFA1CE00A4B00221A60FFF700FC0D
:10104C0038610FE0FFF7FCFB02463B69D31A022B19
:10105C0008D9032346E100BF0010024000004242C1
:10106C0080044242924B5B6A03F00203002BE9D1ED
:10107C007B681B6803F00403002B00F0A6800023A0
:10108C00FB758B4BDB6903F08053002B0DD1884B28
:10109C00DB69874A43F08053D361854BDB6903F0EE
:1010AC008053BB60BB680123FB75824B1B6803F448
:1010BC008073002B18D17F4B1B687E4A43F48073DE
:1010CC001360FFF7BDFB386108E0FFF7B9FB024680
:1010DC003B69D31A642B01D9032303E1754B1B68BD
:1010EC0003F48073002BF0D07B68DB68012B06D1F6
:1010FC006F4B1B6A6E4A43F0010313622DE07B6851
:10110C00DB68002B0CD16A4B1B6A694A23F0010384
:10111C001362674B1B6A664A23F0040313621CE0DC
:10112C007B68DB68052B0CD1614B1B6A604A43F072
:10113C00040313625E4B1B6A5D4A43F001031362A6
:10114C000BE05B4B1B6A5A4A23F001031362584BAA
:10115C001B6A574A23F0040313627B68DB68002B7D
:10116C0015D0FFF76DFB38610AE0FFF769FB02460B
:10117C003B69D31A41F28832934201D90323B1E07F
:10118C004B4B1B6A03F00203002BEED014E0FFF76D
:10119C0057FB38610AE0FFF753FB02463B69D31A51
:1011AC0041F28832934201D903239BE0404B1B6AE6
:1011BC0003F00203002BEED1FB7D012B05D13C4B40
:1011CC00DB693B4A23F08053D3617B68DB69002BDE
:1011DC0000F08780364B5B6803F00C03082B61D062
:1011EC007B68DB69022B46D1334B00221A60FFF778
:1011FC0027FB386108E0FFF723FB02463B69D31A53
:10120C00022B01D903236DE0294B1B6803F00073FB
:10121C00002BF0D17B681B6AB3F5803F08D1244BBF
:10122C005B6823F400327B689B68214913434B6055
:10123C001F4B5B6823F474127B68196A7B685B6ACA
:10124C000B431B4913434B601B4B01221A60FFF7E6
:10125C00F7FA386108E0FFF7F3FA02463B69D31A54
:10126C00022B01D903233DE0114B1B6803F00073E3
:10127C00002BF0D035E0104B00221A60FFF7E0FA9B
:10128C00386108E0FFF7DCFA02463B69D31A022BFF
:10129C0001D9032326E0064B1B6803F00073002BD7
:1012AC00F0D11EE07B68DB69012B07D1012319E02B
:1012BC000010024000700040600042420B4B5B6823
:1012CC00FB60FB6803F480327B681B6A9A4206D190
:1012DC00FB6803F470127B685B6A9A4201D00123AD
:1012EC0000E0002318461837BD4680BD00100240B0
:1012FC0080B584B000AF786039607B68002B01D179
:10130C000123D0E06A4B1B6803F007033A689A424A
:10131C0010D9674B1B6823F0070265493B681343E0
:10132C000B60634B1B6803F007033A689A4201D0C9
:10133C000123B8E07B681B6803F00203002B20D06C
:10134C007B681B6803F00403002B05D0594B5B68CA
:10135C00584A43F4E06353607B681B6803F008034E
:10136C00002B05D0534B5B68524A43F460535360D7
:10137C00504B5B6823F0F0027B689B684D4913432C
:10138C004B607B681B6803F00103002B40D07B682B
:10139C005B68012B07D1474B1B6803F40033002B10
:1013AC0015D101237FE07B685B68022B07D1414B91
:1013BC001B6803F00073002B09D1012373E03D4B34
:1013CC001B6803F00203002B01D101236BE0394BA6
:1013DC005B6823F003027B685B68364913434B6000
:1013EC00FFF72EFAF8600AE0FFF72AFA0246FB68CC
:1013FC00D31A41F28832934201D9032353E02D4B87
:10140C005B6803F00C027B685B689B009A42EBD133
:10141C00274B1B6803F007033A689A4210D2244BFF
:10142C001B6823F0070222493B6813430B60204BD7
:10143C001B6803F007033A689A4201D0012332E09B
:10144C007B681B6803F00403002B08D0194B5B6806
:10145C0023F4E0627B68DB68164913434B607B68BE
:10146C001B6803F00803002B09D0124B5B6823F4B4
:10147C0060527B681B69DB000E4913434B6000F024
:10148C0021F802460B4B5B681B0903F00F030A495A
:10149C00CB5C22FA03F3094A1360094B1B6818460C
:1014AC00FFF78CF9002318461037BD4680BD00BFEE
:1014BC0000200240001002404020000800000020E4
:1014CC000400002080B487B000AF0023FB60002331
:1014DC00BB6000237B6100237B6000233B611E4BC0
:1014EC005B68FB60FB6803F00C03042B02D0082B39
:1014FC0003D027E0194B3B6127E0FB689B0C03F002
:10150C000F03174AD35C7B60FB6803F48033002B1A
:10151C0010D0114B5B685B0C03F00103114AD35CD8
:10152C00BB607B680D4A03FB02F2BB68B2FBF3F3B2
:10153C007B6104E07B680C4A02FB03F37B617B69F3
:10154C003B6102E0054B3B6100BF3B6918461C3711
:10155C00BD4680BC704700BF0010024000127A00EC
:10156C00582000086820000800093D0080B400AF36
:10157C00024B1B681846BD4680BC7047000000201B
:10158C0080B500AFFFF7F2FF0246054B5B681B0A04
:10159C0003F007030349CB5C22FA03F3184680BD22
:1015AC00001002405020000880B500AFFFF7DEFFAE
:1015BC000246054B5B68DB0A03F007030349CB5C6F
:1015CC0022FA03F3184680BD001002405020000898
:1015DC0080B485B000AF78600A4B1B680A4AA2FB46
:1015EC0003235B0A7A6802FB03F3FB6000BFFB6812
:1015FC005A1EFA60002BF9D100BF00BF1437BD464C
:10160C0080BC704700000020D34D621080B582B0C2
:10161C0000AF78607B68002B01D1012341E07B682F
:10162C0093F83D30DBB2002B06D17B68002283F8A7
:10163C003C207868FEF7E4FF7B68022283F83D20AB
:10164C007B681A687B6804331946104600F074FAFC
:10165C007B68012283F846207B68012283F83E20B8
:10166C007B68012283F83F207B68012283F84020AD
:10167C007B68012283F841207B68012283F8422099
:10168C007B68012283F843207B68012283F8442085
:10169C007B68012283F845207B68012283F83D207A
:1016AC00002318460837BD4680BD000080B485B0C5
:1016BC0000AF78607B6893F83D30DBB2012B01D032
:1016CC0001233AE07B68022283F83D207B681B688B
:1016DC00DA687B681B6842F00102DA607B681B6881
:1016EC00184A93420ED07B681B68B3F1804F09D027
:1016FC007B681B68144A934204D07B681B68134AAE
:10170C00934211D17B681B689B6803F00703FB6055
:10171C00FB68062B10D07B681B681A687B681B68FB
:10172C0042F001021A6007E07B681B681A687B684C
:10173C001B6842F001021A60002318461437BD469C
:10174C0080BC7047002C01400004004000080040A1
:10175C0080B582B000AF78607B681B681B6903F0B2
:10176C000203022B22D17B681B68DB6803F00203A7
:10177C00022B1BD17B681B686FF002021A617B681D
:10178C0001221A777B681B689B6903F00303002B0B
:10179C0003D0786800F0B4F905E0786800F0A7F998
:1017AC00786800F0B6F97B6800221A777B681B68B2
:1017BC001B6903F00403042B22D17B681B68DB68D4
:1017CC0003F00403042B1BD17B681B686FF004022D
:1017DC001A617B6802221A777B681B689B6903F489
:1017EC004073002B03D0786800F08AF905E0786824
:1017FC0000F07DF9786800F08CF97B6800221A778C
:10180C007B681B681B6903F00803082B22D17B68DB
:10181C001B68DB6803F00803082B1BD17B681B6873
:10182C006FF008021A617B6804221A777B681B68C8
:10183C00DB6903F00303002B03D0786800F060F938
:10184C0005E0786800F053F9786800F062F97B687D
:10185C0000221A777B681B681B6903F01003102B9E
:10186C0022D17B681B68DB6803F01003102B1BD1A3
:10187C007B681B686FF010021A617B6808221A776C
:10188C007B681B68DB6903F44073002B03D078681A
:10189C0000F036F905E0786800F029F9786800F076
:1018AC0038F97B6800221A777B681B681B6903F088
:1018BC000103012B0ED17B681B68DB6803F001036D
:1018CC00012B07D17B681B686FF001021A617868E5
:1018DC00FEF752FE7B681B681B6903F08003802BAC
:1018EC000ED17B681B68DB6803F08003802B07D16B
:1018FC007B681B686FF080021A61786800F07BFAD5
:10190C007B681B681B6903F04003402B0ED17B687E
:10191C001B68DB6803F04003402B07D17B681B6816
:10192C006FF040021A61786800F0FCF87B681B6865
:10193C001B6903F02003202B0ED17B681B68DB682E
:10194C0003F02003202B07D17B681B686FF020026B
:10195C001A61786800F046FA00BF0837BD4680BDB2
:10196C0080B584B000AF786039600023FB737B686E
:10197C0093F83C30012B01D10223B4E07B680122A7
:10198C0083F83C207B68022283F83D207B681B682F
:10199C009B68BB60BB6823F07703BB60BB6823F418
:1019AC007F43BB607B681B68BA689A603B681B68A6
:1019BC00B3F5005F3ED0B3F5005F00F28780B3F55E
:1019CC00805F00F08680B3F5805F7FD8702B1AD0D3
:1019DC00702B7BD8602B50D0602B77D8502B3CD001
:1019EC00502B73D8402B58D0402B6FD8302B64D051
:1019FC00302B6BD8202B60D0202B67D8002B5CD0E1
:101A0C00102B5AD062E07B6818683B6899683B6879
:101A1C005A683B68DB6800F068F97B681B689B6858
:101A2C00BB60BB6843F07703BB607B681B68BA681C
:101A3C009A604FE07B6818683B6899683B685A6805
:101A4C003B68DB6800F051F97B681B689A687B681F
:101A5C001B6842F480429A603CE07B6818683B68E3
:101A6C0059683B68DB681A4600F0C8F87B681B684D
:101A7C005021184600F01FF92CE07B6818683B6871
:101A8C0059683B68DB681A4600F0E6F87B681B680F
:101A9C006021184600F00FF91CE07B6818683B6861
:101AAC0059683B68DB681A4600F0A8F87B681B682D
:101ABC004021184600F0FFF80CE07B681A683B6880
:101ACC001B681946104600F0F6F803E00123FB737F
:101ADC0000E000BF7B68012283F83D207B68002278
:101AEC0083F83C20FB7B18461037BD4680BD80B484
:101AFC0083B000AF786000BF0C37BD4680BC704728
:101B0C0080B483B000AF786000BF0C37BD4680BC9A
:101B1C00704780B483B000AF786000BF0C37BD460F
:101B2C0080BC704780B483B000AF786000BF0C37C6
:101B3C00BD4680BC7047000080B485B000AF7860B3
:101B4C0039607B681B68FB607B68294A93420BD029
:101B5C007B68B3F1804F07D07B68264A934203D051
:101B6C007B68254A934208D1FB6823F07003FB6025
:101B7C003B685B68FA681343FB607B681C4A9342C2
:101B8C000BD07B68B3F1804F07D07B68194A934226
:101B9C0003D07B68184A934208D1FB6823F4407346
:101BAC00FB603B68DB68FA681343FB60FB6823F05F
:101BBC0080023B685B691343FB607B68FA681A60C0
:101BCC003B689A687B68DA623B681A687B689A6241
:101BDC007B68074A934203D13B681A697B681A6396
:101BEC007B6801225A6100BF1437BD4680BC704728
:101BFC00002C0140000400400008004080B487B075
:101C0C0000AFF860B9607A60FB681B6A7B61FB68A7
:101C1C001B6A23F00102FB681A62FB689B693B613B
:101C2C003B6923F0F0033B617B681B013A6913436A
:101C3C003B617B6923F00A037B617A69BB681343C0
:101C4C007B61FB683A699A61FB687A691A6200BF2A
:101C5C001C37BD4680BC704780B487B000AFF860BD
:101C6C00B9607A60FB681B6A7B61FB681B6A23F0B6
:101C7C001002FB681A62FB689B693B613B6923F4A9
:101C8C0070433B617B681B033A6913433B617B697F
:101C9C0023F0A0037B61BB681B017A6913437B6152
:101CAC00FB683A699A61FB687A691A6200BF1C3753
:101CBC00BD4680BC704780B485B000AF7860396099
:101CCC007B689B68FB60FB6823F07003FB603A68E1
:101CDC00FB68134343F00703FB607B68FA689A6068
:101CEC0000BF1437BD4680BC704780B487B000AFCE
:101CFC00F860B9607A603B60FB689B687B617B69CC
:101D0C0023F47F437B613B681A027B681A43BB68F0
:101D1C0013437A6913437B61FB687A699A6000BF4D
:101D2C001C37BD4680BC704780B485B000AF78606E
:101D3C0039607B6893F83C30012B01D1022346E0DB
:101D4C007B68012283F83C207B68022283F83D20CB
:101D5C007B681B685B68FB607B681B689B68BB606F
:101D6C00FB6823F07003FB603B681B68FA68134345
:101D7C00FB607B681B68FA685A607B681B68164AB4
:101D8C0093420ED07B681B68B3F1804F09D07B68FF
:101D9C001B68124A934204D07B681B68104A93421A
:101DAC000CD1BB6823F08003BB603B685B68BA68EE
:101DBC001343BB607B681B68BA689A607B6801221E
:101DCC0083F83D207B68002283F83C2000231846D2
:101DDC001437BD4680BC7047002C01400004004005
:101DEC000008004080B483B000AF786000BF0C37AF
:101DFC00BD4680BC704780B483B000AF786000BF34
:101E0C000C37BD4680BC704780B582B000AF78609F
:101E1C007B68002B01D1012342E07B6893F84130B1
:101E2C00DBB2002B06D17B68002283F84020786857
:101E3C00FEF70AFC7B68242283F841207B681B6830
:101E4C00DA687B681B6822F40052DA60786800F06C
:101E5C002BF87B681B681A697B681B6822F490421C
:101E6C001A617B681B685A697B681B6822F02A021E
:101E7C005A617B681B68DA687B681B6842F4005205
:101E8C00DA607B6800225A647B68202283F8412048
:101E9C007B68202283F842207B6800225A6300234F
:101EAC0018460837BD4680BD80B584B000AF786059
:101EBC007B681B681B6923F440517B68DA687B687C
:101ECC001B680A431A617B689A687B681B691A4312
:101EDC007B685B691343BB607B681B68DB6823F41E
:101EEC00B05323F00C037A681268B9680B43D360C3
:101EFC007B681B685B6923F440717B689A697B681B
:101F0C001B680A435A617B681B682C4A934203D1B5
:101F1C00FFF74AFBF86002E0FFF732FBF860FA6863
:101F2C0013469B0013449A001A447B685B689B0021
:101F3C00B2FBF3F3224AA2FB03235B091901FA68F3
:101F4C0013469B0013449A001A447B685B689B0001
:101F5C00B2FBF3F21A4BA3FB02035B09642000FBF8
:101F6C0003F3D31A1B013233154AA2FB03235B097B
:101F7C0003F0F0031944FA6813469B0013449A00CB
:101F8C001A447B685B689B00B2FBF3F20C4BA3FB1F
:101F9C0002035B09642000FB03F3D31A1B013233E9
:101FAC00074AA2FB03235B0903F00F027B681B6843
:101FBC000A449A6000BF1037BD4680BD003801400E
:101FCC001F85EB5170B500260C4D0D4C641BA410F5
:101FDC00A64209D100F022F800260A4D0A4C641BD7
:101FEC00A410A64205D170BD55F8043B98470136A4
:101FFC00EEE755F8043B98470136F2E76C200008F1
:10200C006C2000086C200008702000080346024475
:10201C00934200D1704703F8011BF9E7F8B500BFF4
:10202C00F8BC08BC9E467047F8B500BFF8BC08BCAD
:04203C009E46704705
:102040000000000000000000010203040607080968
:10205000000000000102030402030405060708094A
:0C2060000A0B0C0D0E0F10100102000006
:04206C003101000836
:042070000D01000856
:0C2074000024F400100000000100000037
:040000050800075197
:00000001FF
